:020000040800F2
:1050000000500020ED7D0008397500083B75000850
:105010003D7500083F75000841750008000000005C
:1050200000000000000000000000000043750008C0
:105030004575000800000000477500084975000824
:105040003D7E00083D7E00083D7E00087177000827
:105050003D7E00083D7E0008A9750008C97500085E
:10506000E97500081D7600083D7600083D7E0008C1
:105070003D7E00083D7E00083D7E0008CD7700089B
:105080003D7E00083D7E0008597500083D7E000801
:10509000D17700083D7E00083D7E00085D7600085F
:1050A0003D7E00083D7E00083D7E00082577000813
:1050B000655C00083D7E00083D7E000879750008AB
:1050C000897500083D7E00083D7E0008997500083E
:1050D0003D7E00083D7E0008697500083D7E0008A1
:1050E000AD7600088D7700083D7E000800000000C6
:1050F00000000000000000000000000000000000B0
:0C51000000000000000000005FF808F153
:10511000844641EA000313F0030349D1403A23D304
:105120000B6803604B6843608B688360CB68C36027
:105130000B6903614B6943618B698361CB69C3610F
:105140000B6A03624B6A43628B6A8362CB6AC362F7
:105150000B6B03634B6B43638B6B8363CB6BC363DF
:1051600040304031403ADBD230320BD30B68036021
:105170004B6843608B688360CB68C360103010312C
:10518000103AF3D20C3205D351F8043B40F8043BFB
:10519000043AF9D2043208D0D2071CBF11F8013BFF
:1051A00000F8013B01D30B8803806046704700BFC5
:1051B000082A13D38B07B1D010F00303AED0C3F18C
:1051C0000403D21ADB071CBF11F8013B00F8013BB6
:1051D000A4D331F8023B20F8023B9FE7043AD9D32D
:1051E000013A11F8013B00F8013BF9D20B7803704A
:1051F0004B7843708B7883706046704740EA010CAF
:105200001CF0070F27D1BDF1100DCDE90245CDE906
:1052100000676FF000064FF0000700BFF0E80223C0
:10522000F1E80245A242A2F1013C2CEA020C0CF08A
:10523000803C08BFBCF1000F40F0E580AB42A3F119
:10524000013C2CEA030C0CF0803C08BFBCF1000FC1
:1052500040F0D680E2E710F0030C21D020F00300EC
:1052600050F8042B5FEACC7C08D00FD211F801CBA8
:105270005FFA92F3B3EB0C0C10D17BB111F801CBB8
:105280005FFAA2F3B3EB0C0C08D13BB111F801CBE0
:105290005FFAB2F3B3EB0C0C00D10BB96046704768
:1052A000BDF1100DCDE90245CDE900676FF00006B4
:1052B0004FF0000711F0030C33D110F0040F0FD0A2
:1052C00050F8042B51F8044BA242A2F1013C2CEA05
:1052D000020C0CF0803C08BFBCF1000F40F0938042
:1052E00011F0040F99D051F8045B00BFF0E80223DD
:1052F000AA42A2F1013C2CEA020C0CF0803C08BF4F
:10530000BCF1000F79D1F1E80245A342A3F1013CC1
:105310002CEA030C0CF0803C08BFBCF1000F69D1F3
:10532000E4E721F00301BCF1020F20D03FDA51F88D
:10533000045B00BF50F8043B4FEA1525A3F1013C84
:105340002CEA030C0CF0803CB7EB0C2F03EA16227E
:1053500008BFAA4251D151F8045BBCF1000F82EAA8
:1053600003034FEA056208BF934240D1E2E751F8D8
:10537000045B00BF50F8043B4FEA1545A3F1013C24
:105380002CEA030C0CF0803CB7EB0C4F03EA1642FE
:1053900008BFAA4231D151F8045BBCF1000F82EA88
:1053A00003034FEA054208BF934220D1E2E751F8D8
:1053B000045B00BF50F8043B4FEA1565A3F1013CC4
:1053C0002CEA030C0CF0803CB7EB0C6F03EA16627E
:1053D00008BFAA4211D151F8045BBCF1000F82EA68
:1053E00003034FEA052208BF934200D1E2E719BA4E
:1053F00012BA0AE019BA22BA07E011BA2ABA04E0CE
:1054000019BA2ABA01E011BA22BA9CFA8CF0DDE985
:105410000067DDE902451DF1100D38B1B0FA80F0EA
:10542000C0F1180021FA00F122FA00F201209142A5
:1054300098BF8041704700BFF0B5012185B0054697
:1054400001F022FCA0F13006072E044625D81649AB
:10545000684601F09FFB2846694601F003FC0746B9
:10546000684601F055FB0FB1B4B20EE00F49684633
:1054700001F090FB2846694601F0F4FB05466846BA
:1054800001F046FB65B1263CA4B22046032100F0A2
:1054900083FF204601F03CF804E04FF0FF3001E0CC
:1054A0006FF0010005B0F0BD484E01084A4E0108FA
:1054B000F0B5012185B0044601F0E6FBA0F130060D
:1054C000072E49D8684621460322072301F0DEFB58
:1054D0006846264901F09CFB0546684601F018FB2A
:1054E0007DB9684621460322062301F0CFFB6846BA
:1054F0001F4901F08DFB0746684601F009FB0FB913
:105500002DE001251B49684601F044FB2046694611
:1055100001F0A8FB0746684601F0FAFA1FB1B6B2DF
:105520003046002110E01449684601F033FB204664
:10553000694601F097FB0446684601F0E9FA8CB130
:105540000A36B6B23046394600F026FF30462946C4
:1055500000F09CFF012007E04FF0FF3004E06FF007
:10556000010001E06FF0020005B0F0BD4C4E0108F3
:10557000514E0108484E01084A4E0108F0B501217C
:1055800085B0054601F080FBA0F13006072E0446E9
:1055900025D81649684601F0FDFA2846694601F00B
:1055A00061FB0746684601F0B3FA0FB1B4B20EE0F2
:1055B0000F49684601F0EEFA2846694601F052FBB1
:1055C0000546684601F0A4FA65B1263CA4B220461F
:1055D000012100F0E1FE204601F00CF804E04FF05C
:1055E000FF3001E06FF0010005B0F0BD484E01084A
:1055F0004A4E0108F0B5012189B0044601F044FB90
:10560000A0F13007072F06463ED803226846214600
:1056100001F062FB1F4904A801F0BCFA204604A96E
:1056200001F020FB054604A801F072FA55B1BFB2A3
:105630000021384600F0B0FE684601F054FBC1B2CC
:10564000384617E0144904A801F0A4FA204604A93A
:1056500001F008FB044604A801F05AFA74B1263E92
:10566000B6B22946304600F097FE684601F03BFB93
:10567000C1B2304601F018F8012401E06FF00104D6
:10568000684601F045FA01E04FF0FF34204609B0CA
:10569000F0BD00BF484E01084A4E010808B5094850
:1056A000094900F08DFC0948094900F089FC0948C6
:1056B000094900F085FCBDE808400848084900F0A9
:1056C0007FBC00BF554E010839540008614E0108E7
:1056D000B15400086E4E01087D550008794E01084E
:1056E000F55500087047000007B5002100910A46F3
:1056F0000B46034801F052F903B05DF804FB00BF0C
:10570000100B0020013101EB420291420BD0030F3C
:10571000092B94BF3033373301F8013C00230001DB
:1057200001F8023BF1E77047F8B50020012100F0D5
:10573000ADFE744B1A6812B11A68013A1A60724BC6
:10574000724D1B7833B1724B1B78E3B1714B002B58
:105750003AD118E0704C236813B12368013B11E083
:105760002B7883B96D4B1B786BB96D4B1B7853B994
:105770006C4F6D4E3B7863B3E72004F0E7FD337860
:105780002BB314232360694B694C1B7803F0FF0291
:105790005BB122684EF65F239A4202D9012323713E
:1057A00004E023680133236000E022602B78614E1F
:1057B00003F0FF07002B33D1384604F0C7FE40F654
:1057C000B73398421BD82BE000F0FAFCDBE701234B
:1057D000D8E733784BB14FF6FF7004F0C7FCE720F1
:1057E00004F040FD01233B70CDE7E72004F068FDA5
:1057F000514B1B780BB13223C4E76423C2E7384610
:1058000004F0ACFE3378C3B94C4B1B782BB14A4B38
:10581000454A1B7812781A426FD001232B700CE096
:10582000002004F093FE41F65733984205D900203A
:1058300004F094FE424B01221A703378002B36D1CB
:10584000A2683B4B1AB19A68013A9A602FE0334A3A
:10585000127802F0FF0042B1D96847F22F5291420C
:105860001FD8DA680132DA6021E02F4A127802F09C
:10587000FF016AB1196947F22F52914204D91861A8
:10588000304B01221A7012E01A6901321A610EE0DF
:10589000294A12785AB1586947F22F52904203D9D7
:1058A000596101221A7102E05A6901325A61264B8C
:1058B0001A68B2F57A7F04D300221A6005F0CCFF93
:1058C00002E01A6801321A6023795BB1BFF34F8F8F
:1058D0001E4A1F4BD16801F4E0610B43D360BFF354
:1058E0004F8FFEE7174B1B780BB100F0FDFCBDE8B6
:1058F000F8400020014600F0C9BD124B01221A7089
:105900008BE700BFD8230020FC1900208619002057
:10591000C80E0020C1610008D42300208A1900208D
:105920008C1900208B190020891900206C1A002086
:10593000180B0020A21900208819002087190020C8
:105940009719002096190020DC23002000ED00E0CC
:105950000400FA0508B5094B186005F023F800208B
:1059600005F06CF8064804F0B1FA05F033F805F0DC
:1059700051F8BDE8084006F08BBF00BFC801002009
:10598000A0860100074B1B68052B08D1064B1A7E29
:10599000012A04D1987E1B7FC01AC0B27047002034
:1059A000704700BF301A0020180B00200D4B10B5B7
:1059B0001B68052B13D10C4C237E012B0FD1628B5E
:1059C000A38BD31A012B04D100230320237607F0E5
:1059D000B6F8A38B5A1CA2831C44A07F10BD4FF0C5
:1059E000FF3010BD301A0020180B0020084B1B6838
:1059F000052B0CD1074B1A6E99180132B2F5807F36
:105A00001A6608BF002281F8640008BF1A66704752
:105A1000301A0020180B0020F8B5234B93F86421AE
:105A2000012A3FD0D3F86821196EB2F5807F04BFF8
:105A30000022C3F86821D3F868411B4A8C4203D185
:105A4000002382F86431F8BD8CBFC4F58071C4EBCB
:105A50000101C2F86C11D3F86C61134D402EA2B253
:105A600007D94034403EC5F86841C5F86C6140270D
:105A700006E034440021B7B2C5F86841C5F86C119E
:105A80000A4801241044C0213A4683F8644106F0D4
:105A9000D1FF2046394607F0D5F82046BDE8F8404A
:105AA00007F03AB8F8BD00BF180B00207C0B0020AF
:105AB000094B10B593E8140008331B68D0180AD0BE
:105AC00006490822FFF71EFE204605490422BDE8CC
:105AD0001040FFF717BE10BDE8F7FF1F7701002049
:105AE000870100201FB50120014605F037FF4FF068
:105AF000804006F013F801A806F02EFA48F6A043FD
:105B00000024ADF8043001A963234FF08040ADF8C4
:105B10000830ADF80A40ADF8064006F0D5F801218E
:105B20000A464FF0804006F044FA01214FF08040D1
:105B300006F025FA1C238DF800300E238DF8013075
:105B4000684601238DF802408DF8033005F018FBFC
:105B500004B010BD38B54FF000604FF4A04105F01F
:105B600043FB0124344B354821461C7005F01CFED4
:105B700004F0A2FC04F082F92146402005F0D6FE94
:105B80006FF07F4004F0F2FAE72004F06BFB2C4B3F
:105B90001C7004F0B3F97D2005F004FF18B1294B07
:105BA0001C7005F013FF40F6B83004F010FA04F052
:105BB00053FF05F0F3F8244801F0B8FA234B002016
:105BC000014601241C7000F0E7FB2046002100F094
:105BD000E3FB0220002100F0DFFB1D4B1A781D467D
:105BE00022B901F02FFB00F0BDFBF6E7FFF77AFFCB
:105BF0002B7823B9174B93F87031002BF8D0164B44
:105C00001B78002BF4D10F4B1B78002BF0D1114CDB
:105C100094F87031012B01D0104B33B9104B0BB1FC
:105C2000FFF760FD00F09EFBE2E7FFF737FD012381
:105C300084F87031F2E700BF121A0020000430002F
:105C40008B190020D023002031610008A319002007
:105C500089190020180B00208A1900209D56000881
:105C6000E556000808B54FF08040012106F0DAF94A
:105C7000A0B14FF08040012106F0DFF9084B02206F
:105C800093F87111D1F1010138BF002183F871112E
:105C900000F0FCFBBDE8084001F0D4BA08BD00BF2D
:105CA000180B002007B5002100910A460B46034857
:105CB00000F074FE03B05DF804FB00BF8C0C002004
:105CC00038B504460D46AC4203D254F8043B98471D
:105CD000F9E738BD08B507480749FFF7F1FF07485E
:105CE0000749FFF7EDFFBDE8084006480649FFF702
:105CF000E7BF00BFF8510108F8510108F851010849
:105D0000445201084452010844520108FEE70000D1
:105D1000054A08B5136818441060044A904201D936
:105D20000BF018FB184608BD0000002000480020BA
:105D30004FF0FF307047012070470000014B18689A
:105D4000704700BF980C0020064B0246582000FB0D
:105D5000013101F1080303CB1060516018689060B5
:105D6000704700BF980C0020014BD3F864017047C6
:105D7000980C0020064B0246142000FB013101F56F
:105D8000B67303CB1060516018689060704700BF15
:105D9000980C002038B50546064C28B104F088FA66
:105DA000012384F8303238BD04F030FA84F83052E0
:105DB00038BD00BF980C00200E4B2DE9F041D3F800
:105DC000647180460024BC4211DA14256543094EF3
:105DD000414606F5B67028440C220CF06DFA20B945
:105DE0003544D5F86801BDE8F0810134EBE70020C7
:105DF000BDE8F081980C002038B50B4B05461B78A8
:105E00000A4623B9094B1B7803F0FF0413B14FF086
:105E1000FF3038BD064B2946D3F83402234603F041
:105E2000C3FA044B1C6038BD96190020A21900204B
:105E3000980C0020280B00202DE9F041274B86B05C
:105E40001B7880460F46002B42D1254B1B7803F070
:105E5000FF04002B3CD1234D06AAD5F834020121C2
:105E6000460902EB860600F01F0291408DF80C40B7
:105E70008DF80D408DF80E408DF80F4056F80C2C23
:105E800001300A4346F80C2C41F28832059204AAEC
:105E9000009203A922462346049403F06BF90028DC
:105EA00018DDD5F8343206AA590902EB810151F800
:105EB0000C5C03F01F02154115F001000AD01846D2
:105EC000414623463A4603F0EDF9074B1C6001E0DA
:105ED0004FF0FF3006B0BDE8F08100BF96190020FA
:105EE000A2190020980C0020280B0020044B01224E
:105EF0001A70044B00224FF4C0201A6004F010BE48
:105F00008A190020240B0020034A00231370034A3F
:105F1000136004F069BE00BF8A190020240B002022
:105F2000024B00221A6004F021BE00BF240B0020A7
:105F30002DE9F04788B0804668460D4600F02AFEFD
:105F40001E4B0024D3F800A054452DDA55B3582633
:105F500066431A4F414607F1080030440C2207F10E
:105F600004090CF0A9F9E8B928460CF075F906F116
:105F70001003402834BF02464022294609EB0300A3
:105F8000FFF7C6F83E44012386F85830694604A856
:105F9000746800F021FE04A8A047044604A800F09D
:105FA000B7FD03E00134CFE74FF0FF34684600F05F
:105FB000AFFD204608B0BDE8F08700BF980C002078
:105FC0002DE9F84F0446894600293DD000283BD0F2
:105FD0001E4D2E68042E37D005F108074FF000083B
:105FE00005F1040AB0450DDA57F8043C4B4505D1DC
:105FF000384621460C220CF05FF928B308F101085D
:106000005837EFE74FF0580808FB06F805EB08078C
:1060100008F1100000214022C7F8049050440BF012
:106020000BFE0AEB0800002104300C220BF004FEEA
:106030002068616807F1080303C3A068013618608F
:10604000002387F858302E60BDE8F88F980C0020A8
:1060500030B5204BADF5797D1B7823B91E4806F08D
:106060005CFE002832D11D4B15A804931C4B5FAD7C
:1060700005931C4B039006931B4B0CAC07931B4BD7
:10608000029508931A4B09931A4B0A931A4B0B93D8
:106090001A4B0C931A4B0D931A4B0E931A4B0F93EA
:1060A0001A4B10931A4B11931A4B12931A4B1393CA
:1060B0001A4B149304F0AAFD284604F0ADFD009499
:1060C0000548174902AA04AB06F02EFE0DF5797DAE
:1060D00030BD00BFA4190020CC0F0020F95D0008DE
:1060E000395E0008ED5E0008095F000849AC000851
:1060F000215F0008955D0008116800083D5D0008FB
:10610000495D0008315F0008695D0008755D0008A1
:1061100049630008B95D000825AC000839AC0008E7
:10612000E8F7FF1F014807F012BC00BFCC0F0020AA
:1061300030B502208DB00146112202F099FF051EF4
:1061400028DB07A8144906F00CFF0223ADF80C3039
:1061500016238DF80E3033238DF80F30E0238DF8A1
:10616000103000238DF8113001238DF81230BB233D
:106170008DF81330032403AB0093102301932846BA
:1061800007A91322002303F019F9013CF3D1284693
:1061900002F09CFF0DB030BDE8F7FF1F10B5074CB3
:1061A000FFF756FF204606F0BBFD204607F029F911
:1061B0000446FFF7BDFF204610BD00BFCC0F0020F6
:1061C00038B5114CD4F8445B2DB1D4F8443B013BB5
:1061D000C4F8443B38BDD4F8483B0C4A52F823007D
:1061E00003F0ECFFE72004F03DF86423084AC4F80C
:1061F000443BD4F8483B126801339342C4F8483B0F
:10620000A8BFC4F8485B38BD980C0020982401084A
:106210000400002030B5022085B00121062202F0E2
:1062200027FF041E1BDB0223ADF8003000238DF88E
:10623000023035238DF803306946082310228DF88B
:1062400004308DF805308DF806308DF8073002F0F7
:1062500063FF0546204602F039FF284601E04FF073
:10626000FF3005B030BD000010B5074C642003F0CE
:1062700021FED4F8340202F029FF18B94FF0FF33A1
:10628000C4F8343210BD00BF980C002008B5FFF7E9
:10629000EBFF01210220062202F0EAFE114900284C
:1062A000C1F834021BDB0223A1F84C3B162381F812
:1062B0004E3B332381F84F3B362381F8503BD023AC
:1062C00081F8513BE52381F8523B042381F8533B8D
:1062D000102201F64C31BDE8084002F01DBF4FF01E
:1062E000FF3008BD980C0020044B012200215A8089
:1062F0001980D986024B1A70704700BF641B0020BA
:10630000961900200F4B2DE9F041D3F864718046B7
:106310000024BC4211DA142565430A4E414606F5B5
:10632000B67028440C220BF0C7FF20B9354495F80D
:106330007801BDE8F0810134EBE74FF0FF30BDE8B4
:10634000F08100BF980C002008B5FFF7DBFF013893
:10635000082803D8024B1844007F08BD022008BD5E
:1063600098240108084B0022D3F83C1203F510735F
:106370008A4208DA93F8500010B1002083F85000E8
:1063800001325133F4E77047980C0020014806F0C1
:10639000AFBC00BFCC0F002014282DE9F341044608
:1063A0000E4669D8FF2967D000F08EFB20B1A4F11A
:1063B0000D039BB2022B5FD900F0A0FA08B1012CAB
:1063C0005AD900F0EFFC20B1A4F112039BB2012BCB
:1063D00052D92B4D24012B192F59B3F80480294B86
:1063E0009F4201D1042003E0274B9F4203D10820A4
:1063F000012105F0A7FAADF80480062E38D8DFE8B1
:1064000006F0040D13191F28310010238DF80730F2
:1064100003238DF806302C44002328E004238DF854
:1064200007302C44012322E048238DF807302C4408
:1064300002231CE028238DF807302C44032316E0A8
:1064400018238DF8073003238DF806302C440423DD
:106450000DE01C238DF8073003238DF806302C4403
:10646000052304E000238DF807302C440623A37392
:10647000384601A905F040F902B0BDE8F08100BF3F
:106480000800002000080140000C01401428F8B565
:1064900005460F4638D81D4E040133199B7B5A1E02
:1064A000D2B2022A30D9062B2ED0FF2B2CD000F0EE
:1064B0000BFB28B1A5F10D039BB2022B00D8F8BD50
:1064C00000F01CFA10B1012D00D8F8BD00F06AFCF4
:1064D00028B1A5F112039BB2012B00D8F8BD3319E6
:1064E0009B7B042B03D128460021FFF755FF012F8A
:1064F00004D13219335992881A61F8BD27B932197B
:10650000335992885A61F8BDF8BD00BF08000020D9
:10651000142870B5044602D94FF0FF3070BD184EF4
:10652000050173199B7B013BDBB2FD2BF4D800F016
:10653000CBFA20B1A4F10D039BB2022BECD900F0F1
:10654000DDF908B1012CE7D900F02CFC20B1A4F151
:1065500012039BB2012BDFD973199B7B062B09D148
:10656000074B93F850114B1EDBB2FD2BD4D82046BD
:10657000FFF712FF73197059998805F00BF970BD78
:106580000800002010B54FF4004086B005F0A6F9D1
:1065900001214FF4007005F0D5F9154804F02EFEE6
:1065A000012400234FF46022114801A901938DF8C2
:1065B00008308DF80930039204938DF8144004F0EC
:1065C0004BFE0B48214604F06BFE094804F071FEB7
:1065D000074804F073FE0028FAD1054804F072FE63
:1065E000034804F074FE0028FAD106B010BD00BFC5
:1065F00000240140092870B504469CBF00F10A043C
:10660000A4B200F061FA38B1A4F10D039BB2022BE1
:1066100002D84FF0FF3070BD00F070F900F0C2FBFF
:1066200020B1A4F112039BB2012BF2D9142CF0D8A3
:106630001B4D2601AB199A79FF2AEAD095F8511122
:10664000914206D09B7B2046062185F85031FFF70A
:10665000A3FE95F85231012B05D1FFF793FF104BA4
:10666000002283F852212E44B17995F851318B42A2
:1066700008D0012200230B4804F036FEB279084B03
:1066800083F851210748012104F025FE0548022125
:1066900004F075FE0028F9D0024804F06DFE70BDCC
:1066A00008000020002401402DE9F043142889B09F
:1066B0000446884600F29E80504F0601BB199B6835
:1066C000002B00F0978000F0FFF928B1A4F10D0332
:1066D0009BB2022B40F28E8000F010F910B1012C19
:1066E00040F2888000F05EFB20B1A4F112039BB25F
:1066F000012B7FD9BD19AB7B13F0FB0F7AD1404B37
:1067000001201A683F4B0146B2FBF3F94BF6803388
:1067100003FB08F8FF2398FBF3F805F013F9204674
:106720000421FFF739FEAB6809F1FF39B3F1804F5F
:106730001FFA89F91FFA88F802D10120014609E001
:10674000314A934208BF022003D0304A934203D11A
:106750000420012105F002F9BC1900254BF67F3316
:10676000A06801A9ADF80830ADF80A50ADF80650A0
:10677000ADF8049005F0A8FA6023ADF81850A5898B
:10678000ADF810300123ADF81230ADF8168045B9E0
:10679000A06804A905F0E2FAA068082105F01EFC33
:1067A0001FE0042D08D1A06804A905F01BFBA06818
:1067B000082105F01BFC14E0082D08D1A06804A9ED
:1067C00005F054FBA068294605F01AFC09E00C2DE1
:1067D00007D1A06804A905F08BFBA068082105F08B
:1067E00017FC3E44B068012105F0ECFBB0680121C4
:1067F00005F0C5FB09B0BDE8F08300BF080000202C
:10680000B802002000366E0100040040000800407D
:1068100004F054BA07B5002100910A460B4603481C
:1068200000F0BCF803B05DF804FB00BFF8170020CF
:10683000024B18785B78C01A704700BF0018002020
:10684000064B5A781978914204D999180132887800
:106850005A7070474FF0FF30704700BF001800209B
:10686000054B5A781978914202D9134498787047A9
:106870004FF0FF30704700BF001800207047000045
:10688000F8B5094B054693F82230164653B10C462D
:106890008F18BC4206D02B6828461B6814F8011BD1
:1068A0009847F6E73046F8BD0018002010B50C4BAD
:1068B000012293F822408CB193F823401F2C02D977
:1068C0004260002010BD93F824001C1884F82510A5
:1068D000411CC9B283F8241083F82310104610BD60
:1068E00000180020002242604FF47A728260014A50
:1068F00002607047C824010870477047014B93F845
:10690000590070470018002013B5084C0021009171
:1069100004F164000A460B4600F040F804F16C00F4
:1069200002B0BDE81040FFF7DDBF00BF0018002037
:1069300008B5034B53F8203003B1984708BD00BF9A
:106940007C18002007B5002100910A460B46034839
:1069500000F024F803B05DF804FB00BFBC18002071
:106960002DE9F041002407460E4625463B191979CA
:106970000A22304600F089F82E218046304600F089
:1069800055F801344044032C0544EFD13046F979E1
:106990000A2200F07AF82844BDE8F08130B583710E
:1069A000034D9DF80C30056001714271C37130BD1B
:1069B000E8240108044B054A1A6000221A715A7132
:1069C0009A71DA71704700BFC4180020E8240108EA
:1069D00007B5002100910A460B460348FFF7DEFF8A
:1069E00003B05DF804FB00BFCC180020F8B50646E4
:1069F0000C468F180025BC4207D0336830461B6810
:106A000014F8011B98470544F5E72846F8BD38B54A
:106A100005460C46084641B10BF01EFC2B680246A9
:106A20005B6828462146984738BD38BD08B50368DD
:106A30001B68984708BD30B500238BB08DF8243013
:106A4000012A98BF0A220DF12304B1FBF2F303FBE4
:106A50001211CDB2092D94BF30353735EDB2214634
:106A600004F801590BB11946EFE7FFF7D0FF0BB05F
:106A700030BD10B522B90268C9B21268904710BD86
:106A8000D2B2BDE81040FFF7D6BFFFF7F2BF00005B
:106A900007B5002100910A460B460348FFF77EFF29
:106AA00003B05DF804FB00BFD818002007B5002133
:106AB00000910A460B460348FFF770FF03B05DF8EC
:106AC00004FB00BFE0180020014B587D704700BF59
:106AD000E81800207047000007B5002100910A4621
:106AE0000B460348FFF75AFF03B05DF804FB00BFF5
:106AF0000019002007B5002100910A460B46034803
:106B0000FFF74CFF03B05DF804FB00BF0C19002039
:106B100010B5044600680AF051FD204610BD10B5BE
:106B20000446006808B10AF049FD00232360A36011
:106B3000636010BD38B504460D46006801310BF0A6
:106B4000E9F810B184E82100012038BD036810B5D0
:106B5000044613B143688B4207D22046FFF7EAFF91
:106B600020B1A3680BB922681370012010BD70B565
:106B70000E46114604461546FFF7E8FF18B92046B1
:106B8000FFF7CDFF04E0A560206831460BF006FB5F
:106B9000204670BD38B5002304460360436083601F
:106BA00003730D4639B108460BF056FB29460246E1
:106BB0002046FFF7DCFF204638BD884210B50B4663
:106BC000044607D0096819B19A68FFF7D0FF01E0C1
:106BD000FFF7A5FF204610BD10B500230446036053
:106BE000436083600373FFF7E8FF204610BD38B5AC
:106BF00005460C4641B108460BF02EFB21460246E5
:106C00002846FFF7B4FF01E0FFF789FF284638BDAB
:106C1000826808B50B4612B919B9012008BD11B92F
:106C20000368187802E00068FEF7E8FAD0F1010086
:106C300038BF002008BD10B58B688468E41AA242F2
:106C40000CD8006868B1096851B110441A460BF0BD
:106C500033FBD0F1010038BF002010BD002010BD73
:106C6000084610BD82688B689A4202D30022FFF763
:106C7000E2BF002070478368994203D2006810B1D8
:106C8000405C704700207047FFF7F5BF9A422DE93E
:106C9000F04107460D4614461E4601D934461646B5
:106CA00038460C49FFF776FFAB689C420FD89E42EE
:106CB00028BF1E462B68002213F806809A552968C3
:106CC00038462144FFF793FF2B6803F806803846C7
:106CD000BDE8F0813C50010810B58B680446FFF711
:106CE000D5FF204610BD006808B10AF03BBB7047D5
:106CF00007B5002100910A460B460348FFF74EFEF8
:106D000003B05DF804FB00BF1419002007B5002193
:106D100000910A460B460348FFF740FE03B05DF8BA
:106D200004FB00BF1C19002007B5002100910A4692
:106D30000B460348FFF732FE03B05DF804FB00BFCB
:106D4000241900204FF0FF307047704708B520210C
:106D5000034805F07EF9003018BF012008BD00BFD0
:106D60000044004008B5024805F06FF908BD00BFB7
:106D70000044004008B5054805F063F90348802148
:106D800005F067F90028F9D0012008BD0044004053
:106D9000002242604FF47A728260014A02607047BA
:106DA000F8240108014B187C704700BF2C19002003
:106DB00013B5084C0021009104F114000A460B465B
:106DC000FFF7ECFD04F11C0002B0BDE81040FFF736
:106DD000DFBF00BF2C19002070474FF0FF30704715
:106DE000FEF7E4BD08B5FEF7CDFD08BD08B50846C1
:106DF000FEF7FCFD012008BD002242604FF47A72CC
:106E00008260014A02607047182501080846FEF7B3
:106E1000A1BD000013B5074C0021009120460A4691
:106E20000B46FFF7BBFD04F1080002B0BDE81040BF
:106E3000FFF7E2BF5819002000230360184670478F
:106E4000002303601846704700230360184670470C
:106E50002DE9F0410B7886B0002B0C4614BF90460C
:106E60004FF0000806460BF0F7F9074620460BF0F6
:106E7000F3F9182301931E230125029302230393A0
:106E8000059000950494404631463A46002302F0AE
:106E9000D9FB034B18705D7006B0BDE8F08100BFF0
:106EA0007019002048F20203984210B51ED006DC8B
:106EB00099284AD048F20103984213D010BD48F2F5
:106EC0008003984207D0B0F5084F42D048F2100333
:106ED000984250D128E0284B01229A70DA700022A3
:106EE0001A7110BD244B01225A7110BD224C6379D6
:106EF00053B1224B00224FF47F401A7003F036F951
:106F0000E72003F0AFF906E0A37913B1013BA371C9
:106F100001E00123A37500236371E3752376637693
:106F2000A376E376237710BD0A7D134B52B9012275
:106F30004FF47F40DA7503F019F9BDE81040E720FF
:106F400003F090B90022DA7510BD0B4B01225A777D
:106F500010BD0A78072A0ED8074B012198188177AF
:106F600007480068824206D100229A76DA765A767D
:106F70001A7683F8261010BD70190020FC19002025
:106F8000CC0E00201FB54FF461504FF461610A220E
:106F90003C238DE80F00684601A902AA03AB01F06B
:106FA000ADFB05B05DF804FB1FB500230093019312
:106FB0000293039301A8694602AA03AB01F064FBA4
:106FC00005B05DF804FB000030B5524D00249FB0C1
:106FD000FF20AC70EC706C706C71EC756C772C767B
:106FE0006C76AC76EC7603F0C1F8E72003F03AF962
:106FF00021462246204602F001FB2B46012103F8E0
:10700000074F0E200A4601F0FFFB6B79012B05D1DB
:10701000642002F04FFF01F087F8F6E710210C2002
:1070200001F03EFC3C4801F0FBFF3C4802F05AFCFA
:10703000012002F03BFC6846394900F0ABFDAB781B
:107040006A78344C1A431CD194F82730002B57D05F
:10705000FF2002F0DDFB002852D11A24013C06D0AB
:10706000E72003F02DF9322002F024FFF6E70E208E
:10707000012122462B4BAC7101F0C6FB85F827405D
:10708000DDE7E72003F0EEF8A31D0E20012100222A
:1070900001F08CFBA37813B102F044FC20702B7834
:1070A00001210133AB7100221E4B0E2001F0ACFB1D
:1070B000002001240146012202F0A0FA21462246C6
:1070C000194B0E20EC7101F09FFB02F01BFA6420BB
:1070D00002F0F0FE002002F0CBF948F2442085F8DF
:1070E000284002F0B1FB4FF47F4003F03FF8E72067
:1070F00003F0B8F8FFF746FF0023AB751FB030BDB3
:10710000E72003F0DDF8FA2002F0D4FE684600F034
:10711000A5FD94E770190020302501085C010020CE
:10712000516E00087619002077190020F0B5394C0F
:1071300085B0E06203F064FB03F0A4FA364B374AF3
:107140000093374B37490193374B38480293384BFC
:1071500000250393374B02F077F9642002F0AAFE72
:10716000002002F085F9012348F24420E57684F8F6
:10717000283002F069FB304BA61D1A881F46012AF1
:1071800006D00E2010212A46334601F00FFBA0B195
:10719000FF2002F03DFB10210E2001F081FB0021B9
:1071A0000025755401311029FAD10E202A46234BAF
:1071B00001F02AFB3D8003F071FC2379154D93B952
:1071C000AB7913B90123AB750DE0E87958B90146E5
:1071D000012202F013FA01212B4603F8071F0E20AB
:1071E0000A4601F011FB237963B90A4B9B7D4BB131
:1071F000134801F03BFBFFF7D7FE05B0BDE8F040B8
:10720000FFF7C0BE4FF47F4002F0B0FFE72003F06D
:1072100029F8EDE7701900203DA70008416E00082D
:1072200051A70008396E0008BDA70008A56E000828
:10723000E5A70008496E0008AA0200207619002080
:10724000A01900202DE9F3410120AA4C0146FFF7C7
:107250001DF994F82630002B40F0C78094F83230A6
:10726000002B40F0C28094F8283003F0FF0023B9CF
:1072700002F0FEF8012384F82830A37D9D4E13B15F
:10728000FFF7A2FE07E033792BB1F37D03F0FF0592
:10729000002B00F0D980E278964B012A13D1DA7DD9
:1072A000012A10D15B79012B0DD1032592480AF0F8
:1072B000D3FF013D82B29049012002F08BF815F016
:1072C000FF05F3D1E57094F833308A4D73B92B7E06
:1072D000002B40F0D0806B7E002B40F0CC80012052
:1072E000002102B0BDE8F041FFF7D0B8834B1A6827
:1072F0001E46002AF3D1EB7D8BB395F8323073BB79
:107300002B7E002B00F0C68029E02B4603F8091FD6
:107310000E200121032201F077FA4FF6FF7002F0F0
:1073200025FFE72002F09EFFFEF7B0FF002880F265
:10733000DA8094F826306F4D002BD0D1FEF76AFF2B
:107340000028B4BF022303232B77237F0E20637210
:1073500001216B4B032201F057FA00232376237E91
:10736000644D002BBBD06B7E3BBBFEF717FF0028A4
:107370001DD002DA4FF47F0007E0012801D16148F7
:1073800003E0022803D14FF0FF1002F0EFFEE720E8
:1073900002F068FF94F8343047F230520133DBB228
:1073A00084F8343094F834305343336005E00123DB
:1073B0006B76554B85F834001860FEF7B3FE002855
:1073C0008DD1524B1B780BB102F020FF0023A37626
:1073D000E376637623764C4B1B68002B3FF47FAF3C
:1073E000444B012283F8262079E794F82830002BBB
:1073F0003FF443AF454B1B780BB102F007FF00256C
:1074000028466571E57584F8265084F8285025765D
:107410006576A576E576257703F0E4F9642002F039
:1074200049FDA37D43B1284602F022F8314B0122E9
:1074300083F82820FFF7C8FD4FF47F4002F096FE46
:10744000E72002F00FFF18E729462A46284602F0F7
:10745000D5F82F480AF000FF2E4F804638460AF034
:10746000FBFE00970190791F032042462B4602F055
:107470005FF835710FE7FEF7F7FE00234FF47F400A
:10748000A376E3766376237602F070FEE72002F0BF
:10749000E9FE24E7642002F00DFD05F1350001F05E
:1074A00073F92B7F002B3FF438AF4FF47F0002F0CD
:1074B0005DFE227F0F4D02F0FF01002A3FF425AF51
:1074C000E72002F0CFFE4FF4FA7002F0F3FCE72061
:1074D00002F0D6FE4FF4FA7002F0ECFC2B7F013B79
:1074E000DBB22B77E5E7012323760B4B00221A60F2
:1074F00035E700BF701900205F010020200B00203D
:10750000791900200060FF00280B0020FC190020E2
:10751000660100206B0100202C0B002007B5002124
:1075200000910A460B460348FFF738FA03B05DF8AE
:1075300004FB00BFE01900207047FEE7FEE7FEE70E
:10754000FEE770477047704708B503F0AFFBBDE832
:107550000840FEF7E9B8000008B5024B0BB1AFF3E5
:10756000008008BD0000000008B5024B0BB1AFF36E
:10757000008008BD0000000008B5024B0BB1FFF70A
:10758000BBF908BDF968000808B5024B0BB1FFF75D
:10759000B4F908BDFB68000808B5024B0BB1FFF752
:1075A00099FA08BDD56A000808B5012004F016F85C
:1075B00038B1012004F020F8024B13B10020FFF78E
:1075C000B7F908BD3169000808B5022004F006F8D3
:1075D00038B1022004F010F8024B13B10120FFF77C
:1075E000A7F908BD3169000808B5042003F0F6FFCB
:1075F00078B1042004F000F80020064B0146188002
:1076000002F0E6FEBDE8084003481021012204F024
:10761000D0BC08BD0E1A0020002C014008B508207F
:1076200003F0DCFF38B1082003F0E6FF024B13B192
:107630000320FFF77DF908BD3169000808B5102067
:1076400003F0CCFF38B1102003F0D6FF024B13B18A
:107650000420FFF76DF908BD3169000808B5202046
:1076600003F0BCFF38B1202003F0C6FF0E4B13B16E
:107670000520FFF75DF9402003F0B0FF38B140204E
:1076800003F0BAFF084B13B10620FFF751F9802031
:1076900003F0A4FF38B1802003F0AEFF024B13B11A
:1076A0000720FFF745F908BD3169000808B54FF418
:1076B000005003F093FF40B14FF4005003F09CFFE3
:1076C000174B13B10D20FFF733F94FF4804003F04F
:1076D00085FF40B14FF4804003F08EFF104B13B193
:1076E0000E20FFF725F94FF4004003F077FF40B17B
:1076F0004FF4004003F080FF094B13B10F20FFF758
:1077000017F94FF4006003F069FF38B14FF40060DF
:1077100003F072FFBDE8084002F048BB08BD00BF9F
:107720003169000808B51048102104F07BFCC8B18D
:107730000D48102104F081FC002002F0F7FE30B962
:107740000A4B1A8892B20A3292B21A8008BD0648D1
:107750001021002204F02DFCBDE80840002001218A
:1077600002F036BE08BD00BF002C01400E1A0020FA
:1077700008B5012004F078F930B1012004F084F953
:10778000BDE8084004F05AB908BD000008B5022061
:1077900004F06AF9B0B10C4B00224FF400301A70BB
:1077A00003F02AFF012004F081F810B1012004F059
:1077B00087F804F043F9022004F066F9BDE80840B8
:1077C00004F03CB908BD00BFA219002002F080BA45
:1077D00000F062B838B514490B78012B23D1134A55
:1077E00013680BB90B7038BD114C402B206881B267
:1077F00005D94030403B20601360402504E09DB235
:1078000003442360002313600A482A460844C02129
:1078100005F010F90120294605F014FABDE83840BA
:10782000012005F079B938BD7C0C0020840C0020C3
:10783000800C00207C0B002008B5094B01221A7037
:10784000084B002203201A8005F02CFA064B024652
:1078500018804FF488710548BDE8084005F002B96A
:10786000300B0020340B0020320B0020360B0020A0
:10787000074B1B68052B09D1064B1A68511C052ABA
:10788000196003D100221A60FEF7C6B8704700BF26
:10789000301A0020E819002070B52B4D2B4C2B68B6
:1078A0002B4E9BB22380228833881340990508D53C
:1078B0004FF6FF532B60A3780133DBB2A370FFF7C1
:1078C000D7FF2288338813401A0401D504F0FCFF47
:1078D0002288338813405B0505D54FF6FF332B60B4
:1078E0001C4B5B689847228833881A40900444BF39
:1078F0004DF6FF722A6022881340D90405D54EF652
:10790000FF732B60002003F0EFFB228833881340C5
:107910001A050BD5104B1B7813B103F0C5FB02E021
:10792000022003F0E1FB4FF2FF732B6022883388C3
:107930001340DB0507D54FF6FF632B600720BDE83A
:10794000704003F0D1BB70BD445C0040EC190020D6
:107950001C240020D0010020CC020020034B9B7A85
:1079600013B1034B05221A60704700BFF8230020B3
:10797000301A0020014B04221A607047301A002090
:10798000034B1A78202A04BF00221A70704700BFE8
:10799000F019002070470000212810B508D1114BC4
:1079A0001B681B7803F07F03212B10D0022010BD31
:1079B0002028FBD10B4B0C4A1B681B78107003F07E
:1079C0007F03212B094B18BF00230BB9EEE7084BAF
:1079D000044A002412682046936154829847204646
:1079E00010BD00BF18240020F0190020417A0008C3
:1079F000297A0008074B1B681B7803F07F03212BB3
:107A000006D100F0DF00022814BF022000207047DA
:107A1000022070471824002009B102207047012875
:107A2000FBD808467047000020B9034B08221B68AA
:107A30001A8270470148704718240020C8010020AE
:107A400020B9034B08221B681A827047014870470F
:107A500018240020C801002010B5FEF729F8054BB6
:107A600000241B689C7203F007FB05F031F9024B00
:107A70001C6010BD18240020301A0020334B344AFB
:107A80001B68D27910B500245A729C72DC722046B1
:107A900004F0FAFF20464FF4007104F0FDFF204689
:107AA000102105F007F82046402105F09FF88021BD
:107AB000204605F08BF8204605F054F8254B20466B
:107AC00093F8341005F0CCF8204605F038F8012082
:107AD000214604F0E1FF0120C02105F077F80120E4
:107AE000202104F0E7FF0120214604F0FCFF0220E2
:107AF0004FF4C06104F0D0FF02204FF4807105F014
:107B000065F80220214604F0EEFF0220202104F057
:107B1000D1FF0320214604F0BFFF03204FF48871FA
:107B200005F064F80320402105F09AF803204FF493
:107B3000405104F0D8FF0320214604F0BBFF20464B
:107B400004F056FE044B01221A6010BD18240020D8
:107B50009D250108C8010020301A0020014904F0C9
:107B600043BC00BF00020020014904F03DBC00BF3F
:107B700008020020054B1B68DB78042B04D804495D
:107B800001EBC30104F030BC002070471824002032
:107B90001002002038B504460D46FFF72DF92046A7
:107BA00025614FF41651FFF731F9204638BD00002A
:107BB00007B5002100910A460B460348FEF7EEFE8A
:107BC00003B05DF804FB00BFF419002070B5064651
:107BD0000D46002428460AF03FFB844208D2295D66
:107BE0003046FFF703F9012002F064F90134F1E7B0
:107BF00070BD00002DE9F84304460F4690460D463F
:107C0000C7EB05095FFA89F92046FFF7EBF8002872
:107C1000FADD2046FFF7E4F8C145C6B206D10023DD
:107C20002B7020460C49FFF7D1FF0AE00D2EF6D04D
:107C30000A2EF4D020463146FFF7D8F805F8016B3C
:107C4000DEE72046FFF7CEF8002803DD2046FFF7E9
:107C5000C7F8F6E7BDE8F8833A500108F0B585B0FB
:107C60000446FFF7BFF8002840F39D802046FFF749
:107C7000B7F8C0B2772868D104F114060021212298
:107C8000304604F1350509F0D7FF4122002128468E
:107C900009F0D2FF04F17607002384F876302046FD
:107CA00042497B70FFF792FF204631462022FFF7C2
:107CB000A1FF20463E49FFF789FF012220463946B1
:107CC000FFF798FF94F87630A3F13002D2B2032A7E
:107CD000EFD8312B0BD120463649FFF777FF2046EE
:107CE0003549FFF773FF20463449FFF76FFF94F8DB
:107CF0007620B2F1300708D020463149FFF766FF01
:107D0000204629464022FFF775FF20462D49FFF700
:107D10005DFF23693A4630462946984720462A495E
:107D2000FFF754FF20462949FFF750FF2046284916
:107D3000FFF74CFF20462749FFF748FF204626491A
:107D4000FFF744FF2046254928E069282BD1244B22
:107D500001AD93E8070085E8070020462149FFF7B9
:107D600035FF0026AF5D20463B0903F1300139297C
:107D700084BF03F15701C9B207F00F07FFF736F8C8
:107D800007F13001392984BF5737F9B2204601364F
:107D9000FFF72CF80C2EE5D11349204605B0BDE8BD
:107DA000F040FFF713BF05B0F0BD00BF8E4E0108D5
:107DB000954E0108C24E0108F84E0108234F0108F4
:107DC000694F0108744F0108B74F0108D74F0108E8
:107DD0000A5001083D5001087C500108AD500108CF
:107DE000E8F7FF1FC35001083A500108002100F0D6
:107DF00004B80D4B5B58435004310C480C4B4218EF
:107E00009A42FFF4F6AF0B4A00F003B8002342F8A1
:107E1000043B094B9A42FFF4F9AF03F0B3F8FDF7C6
:107E200059FFFDF797FE70474452010800000020FB
:107E3000100B0020100B002028240020FFF7FEBFAD
:107E40000B0A017043700B0C090E8370C170043073
:107E500070470170090A41700230704743185A7820
:107E6000435C03EB022080B2704710B543189A7848
:107E7000DC78415C120402EB046258780A4402EB9D
:107E8000002010BD73B544790023022C01930FD05C
:107E9000032C19D0012C2BD1164D2B692E4623B162
:107EA0002B6901A898470246B8B9B16801201BE0C8
:107EB000104DEB682E4623B1EB6801A898470246A7
:107EC00058B9B16802200FE00A4D6B692E464BB1DC
:107ED0006B6901A89847024620B1A9682046BDF801
:107EE000043003E0B16803200022134600F068FB71
:107EF00002B070BD641B0020072810B50BD8012903
:107F000009D80124844001FA00F0034B1A6822EAE0
:107F1000040202431A6010BD5802002070B501210E
:107F200086B00546FFF79AFF430404462AD5B0F50C
:107F3000824F27D128460521FFF790FF05EB8000EF
:107F4000EE1D0024C51DAE4206D030460221FFF7CB
:107F500085FF04360444F6E7724B1A8E92B222442F
:107F600092B21A86DA6B1444DC63D96B9A6B914235
:107F700040F0CA8093F84020002A00F0C5809B6939
:107F8000992031E024F4FF4020F07F0080B20028E7
:107F900000F0978048F210039C4228D00CD8B4F52A
:107FA000004F40F2BC8048F202039C4215D948F2CF
:107FB00004039C4211D0B2E048F280039C420CD0F2
:107FC00004D848F240039C424FD0A8E0B4F5024FD9
:107FD00003D0B4F5084F6BD0A1E0524B9A69002A48
:107FE00000F092809B69204600210A4667E000234A
:107FF000EA1852790DF803200133042BF8D16B7A7B
:1080000005F10D008DF80430AB7A8DF80530EB7A70
:108010008DF806302B7B8DF80730002300AA1A4418
:10802000C15C0133042B1172F8D105F1110000235A
:1080300000AA1A44C15C0133042B1173F8D105F175
:108040001500002300AA1A44C15C0133042B1174EB
:10805000F8D12B798DF81430324B9A69002A53D01D
:108060009B6920466946152229E0053500212846EE
:10807000FFF7FBFE042100902846FFF7F6FE0821DB
:1080800001902846FFF7F1FE0C2102902846FFF7E9
:10809000ECFE102103902846FFF7E7FE214B0490E9
:1080A0009A69002A30D09B6920466946142206E06E
:1080B0001C4B9A6942B39B692046691D012298476F
:1080C00022E041F203039C4205D0A4F580530E3B0D
:1080D0009BB2012B1AD86C1D20460421FFF7C5FE68
:1080E00039301CD12A790F4B00212046DA62FFF784
:1080F000BCFE042105462046FFF7B7FE393003D108
:1081000028460121FFF7F8FE012009E0054B1B88F6
:108110009BB29C4204D0B4F5805FF5D100E0002012
:1081200006B070BD641B002038B50A4C63889BB252
:108130000BB9002038BD60680378042BF9D1FFF734
:10814000EDFE01280546F4D10023638001F070FCA8
:10815000284638BD641B00202DE9F84F04468946A7
:1081600092460025DFF87483B8F802309BB2002BEA
:10817000F8D0D8F804603378042B40F0738130468F
:108180000121FFF76BFE05463046FFF7C7FE0028CA
:1081900040F05F8141F207039D4206F1050755D883
:1081A00041F206039D4280F0AE8040F202239D42E0
:1081B00000F0A98014D80C2D09D8082D80F0A380D8
:1081C000002D00F04681062D00F2E1809BE00D2D90
:1081D00000F0968040F201239D4200F0918038E14A
:1081E00041F202039D4218D8B5F5805F00F28B8002
:1081F000B5F5017F40F2848040F207239D4240F0B4
:1082000028813379384604F8013B0021FFF72DFE21
:1082100001462046FFF714FE1BE141F204039D4294
:1082200000F08B8040F2A18000213846FFF71DFE50
:10823000042120603846FFF718FE083444F8040C87
:1082400006F10D03224606F11D016FE041F2110314
:108250009D4255D02BD841F20B039D4253D01CD8E0
:1082600041F209039D424ED000F28C800021384635
:10827000FFF7FBFD042120603846FFF7F6FD0821DB
:1082800060603846FFF7F1FD0C21A0603846FFF72B
:10829000ECFD04F10C0BE060DAE041F20F039D42CB
:1082A00063D036D841F20D039D4246D0D1E042F270
:1082B00006039D4224D00BD8B5F5005F40F2C9807B
:1082C00042F204039D4288BF002300F2848017E03D
:1082D00042F208039D42C0F0BC8042F209039D4275
:1082E0000ED944F20B039D4240F0B38073793846B7
:1082F0000121A8F83030FFF7B1FDA8F83200A8E05E
:1083000033792370A5E038460021FFF7AEFD2060E9
:108310009FE000213846FFF7A8FDA3464BF8040B69
:1083200004213846FFF7A1FD606091E053F8040B8B
:108330008B4242F8040BF9D18BE000213846FFF75D
:1083400094FD042120603846FFF78FFD082160600E
:108350003846FFF78AFDE36804F1080B3933A06063
:1083600076D10121FFF7C8FD72E000213846FFF702
:108370007CFD042120603846FFF777FD083444F87F
:10838000040C66E0337923713B68236061E00021CF
:108390003846FFF76AFD042120603846FFF765FD87
:1083A000082160603846FFF759FD0A21A060384671
:1083B000FFF754FD0C3444F8020C06F11103224679
:1083C00006F1350153F8040B8B4242F8040BF9D146
:1083D0001B8813803DE0F2185279E2540133042BDC
:1083E000F9D106F109000023C15CE2180133042B26
:1083F0001171F9D106F10D000023C15CE2180133BF
:10840000042B1172F9D106F111000023C15CE218AE
:108410000133042B1173F9D106F115000023C15C5F
:10842000E2180133042B1174F9D106F1190000236D
:10843000C15CE2180133062B1175F9D106F11F005A
:108440000023C15CE2180133202B9176F9D100E0C2
:108450005C46B8F800309BB29D4223D11F4B0022EE
:108460001A801FE030460321B778FFF7F7FC8346F8
:10847000B9F1000F0CD00421701DFFF7F6FC024685
:10848000CAF8000006F115014846D2B2FCF740FEDA
:10849000791D20463144C7EB0B02FCF739FE00235F
:1084A000A8F836300023A8F8023001F0C1FA33787A
:1084B000042B05D1B5F5805F02D13046FFF7E2FC11
:1084C000B8F800309BB2002B7FF44CAE034BD88E33
:1084D00080B200287FF446AEBDE8F88F641B002010
:1084E00007284FF0010308D803FA00F0044B1A687C
:1084F00010420CBF0020012070471846704700BF93
:1085000058020020064B10B51880064C0846002182
:1085100001230A462370FFF71FFE0023237010BDBE
:10852000641B00206C1A002010B5054C0123E38663
:10853000044C2370FFF710FE0023237010BD00BF12
:10854000641B00206C1A002038B503461546012232
:108550004A710C46881D1946FFF77BFC291D0570E2
:10856000204601F027FB002038BD38B5BDF8145077
:108570000C462B44D518ADB202216171A071E27195
:10858000294604F10800FFF764FC691D204689B202
:1085900001F010FB002038BD38B513440C469DB2E5
:1085A00002216171A0712946E27104F10800FFF710
:1085B00050FC691D204689B2BDE8384001F0FABA86
:1085C0002DE9F84F1C4604F1020B032301F10709C2
:1085D0001FFA8BFB88710D464B714846594616466B
:1085E000FFF737FCB4F57A7F824605F10B0812D805
:1085F0002146FFF72EFC21465046FFF72AFC314664
:1086000040462246FCF784FDA11D284689B2BDE8FC
:10861000F84F01F0CFBA4FF47A77B4FBF7F30BEBD6
:10862000430189B2FFF715FC39465046FFF711FCAC
:10863000314640463A46FCF76BFDA4F57A7428466D
:1086400040F2EE31A4B23E4401F0B4FAB4F57A7FC0
:1086500084BFA4F57A74A7B2A84688BF4FF47A7491
:10866000314628F8054F4846224698BF0027FCF7B8
:108670004FFDA11C404689B2264401F09BFA0FB180
:108680003C46E3E7BDE8F88FF7B51E46FF238DF8BB
:108690000730194B00259C68475D63190135042D8F
:1086A0005F72F9D100200D5C2318013004285D733E
:1086B000F9D10021505C6318013104295874F9D1B3
:1086C00004F115000021FFF7BBFB0022B35C8354CB
:1086D0000132042AFAD12146142242F20100FFF7A6
:1086E00033FF42F201000DF10701FFF70BFF9DF987
:1086F000070003B0F0BD00BF641B00202DE9F3416B
:108700001F46FF238DF807301E4B0646D3F808801E
:1087100033680C46013B122B9CBF142333600B685B
:1087200008F10900013B122B9CBF14230B60136856
:108730001546013B122B9CBF142313603B68013B81
:10874000122B9CBF14233B603168FFF779FB216833
:10875000FFF776FB2968FFF773FB3968FFF770FBBB
:108760004146142242F20900FFF7EEFE42F20900F0
:108770000DF10701FFF7C6FE9DF9070002B0BDE845
:10878000F08100BF641B002010B5074B04469968B8
:1087900042F205000022FFF7D7FE214642F2050013
:1087A000BDE81040FFF7AEBE641B00202DE9F34189
:1087B0001F4602ACFF2304F8013D124B86469D681C
:1087C0000E4605F1090071469046FFF739FB314628
:1087D000FFF736FB4146FFF733FB29460C2240F2F8
:1087E0000120FFF7B1FE214640F20120FFF78AFE8B
:1087F000002138460A46FFF797FE9DF8070002B0B1
:10880000BDE8F081641B00202DE9F341984602ADDC
:108810004FF0FF3345F8043D134B86469E680C46E7
:1088200006F10A0071461746FFF70AFB0C21FFF715
:1088300007FB2146FFF704FB3946FFF701FB4146E2
:10884000224606F11A00FCF763FC31461022A3B25F
:108850009020FFF7A1FE40F202202946FFF752FECA
:10886000019802B0BDE8F081641B002013B50B4BEA
:1088700004469968002240F20720FFF765FE40F2A7
:1088800007206946FFF73EFE9DF803309DF8000083
:1088900023709DF80430637002B010BD641B00208B
:1088A00037B50E4A034694680D4604F1090019468F
:1088B000FFF7C6FA2946FFF7C3FA2146082240F21D
:1088C0000320FFF741FE40F203200DF10601FFF700
:1088D00019FEBDF8060003B030BD00BF641B0020C8
:1088E0002DE9F0430023CA5CC2540133102BFAD1A6
:1088F0000022344B467B991891F801800178847BE3
:1089000088EA01089919C97A90F80CC088EA010828
:108910001919CF7A417880F810804F40C17B477495
:108920005D1895F80B908578634489EA050593F8FE
:108930000B90C378FFB289EA030390F80490857422
:1089400088EA090890F80590EDB287EA090790F8DF
:108950000690C37485EA090590F80790DBB283EAB4
:10896000090390F8089080F814805FFA88F888EA84
:10897000090890F809904775FFB287EA090790F84F
:108980000A908575EDB285EA090590F80B90C375DC
:10899000DBB283EA0903013288EA0C0C7E406C40AA
:1089A00059400A2A80F8188047768576C37680F881
:1089B0001CC046778477C17700F1100099D1BDE8DB
:1089C000F08300BFF225010810F0800F4FEA40004D
:1089D00018BF80F01B00C0B2704700002DE9F04FB7
:1089E00091F8A03090F800A042788AEA030A80F853
:1089F00000A091F8A13097B053404370827807935C
:108A000091F8A23090F8049053408370C278059397
:108A100091F8A33046795340C370069391F8A4307F
:108A2000827989EA030980F8049091F8A53090F8DA
:108A300008805E40467191F8A630477A53408371B2
:108A4000C279089391F8A73004465340C3710C9340
:108A500091F8A8304FF0000B88EA030880F80880EE
:108A600091F8A9305F404772827A91F8AA3053405A
:108A700083720993C07A91F8AB3094F80CC04340EC
:108A8000E3720D9391F8AC3094F80DE08CEA030C8E
:108A900084F80CC091F8AD30A57B8EEA030E84F803
:108AA0000DE091F8AE30E27B5D40A57391F8AF30F8
:108AB0005A40464BE2739A449AF80B0191F890A001
:108AC000994480EA0A00207099F80BA191F89490DB
:108AD00098448AEA090984F8049098F80B9191F86F
:108AE00098809C4489EA080884F808809CF80B81E7
:108AF00091F89CC09E4488EA0C0C84F80CC09EF847
:108B00000BC191F891E01F448CEA0E0E97F80BC14F
:108B100091F89D701E448CEA0707677396F80B71F5
:108B200091F899601D447E406672079E0D981E4420
:108B300096F80B7191F8956084F801E07E406671BB
:108B4000059E18441E4496F80B7191F89A60774080
:108B5000089E1E4496F80BE191F89E608EEA060688
:108B6000DDF824E09E449EF80BC191F892E08CEA77
:108B70000E0E84F802E095F80BE191F89650A7727A
:108B80008EEA0505A571069DA6731D4495F80B6137
:108B900091F89F5075400C9E1E4496F80B7191F809
:108BA000936013447E40E67090F80B6191F8970053
:108BB0007040E07193F80B2191F89B30CDF81CB018
:108BC0005340E573E3720D4602E000BFF225010851
:108BD000A77894F80090103D87EA0900FFF7F4FEAB
:108BE000FFF7F2FEE67894F801B0824686EA0B00C1
:108BF000FFF7EAFEFFF7E8FE2179A37980EA06088D
:108C000080EA0B0B83EA010003910293FFF7DCFE7D
:108C1000FFF7DAFE8AEA0909E6798AEA070A67793C
:108C2000024686EA07000492FFF7CEFEFFF7CCFE6D
:108C3000049A029B03995340DBB294F808C0069350
:108C4000A37A51404640C9B24740F6B283EA0C00CD
:108C50000293CDF804C005910896FFF7B5FEFFF723
:108C6000B3FE617AE67A024686EA01000391049235
:108C7000FFF7AAFEFFF7A8FE049ADDF804C00399E7
:108C8000029B82EA0C0C53404140C9B25FFA8CFC53
:108C9000DBB20A91CDF824C00B9394F80CC0A37BEF
:108CA0004640F6B283EA0C000293CDF804C00C965D
:108CB000FFF78AFEFFF788FE617BE67B024686EAC5
:108CC000010003910492FFF77FFEFFF77DFE049AF7
:108CD000029BDDF804C00399534082EA0C0C5FFA52
:108CE00089F95FFA8BFB5FFA8AFA5FFA88F84140EC
:108CF000DBB24640C9B28BEA09005FFA8CFC0F93E5
:108D0000F6B288EA0A030E910293CDF834C01096A9
:108D100083EA0006FFF758FE89EA000086EA000CA5
:108D20005FFA8CFC84F800C08AEA0B00CDF804C01E
:108D3000FFF74AFE8BEA0000029B86EA000B5FFA0F
:108D40008BFB184684F801B0CDF844B0FFF73CFE29
:108D50008AEA000086EA000A5FFA8AFA88EA0900CD
:108D600084F802A0CDF848A0FFF72EFE88EA0000A4
:108D7000059BDDF818B0DDF820A04640FFB2F6B242
:108D800087EA03008AEA0B08E670139688EA000671
:108D9000FFF71AFE059948407040C0B21490207148
:108DA0008BEA0700FFF710FE784086EA0007FFB263
:108DB000677140461597FFF707FE8BEA0000059A9A
:108DC0007040C0B20690A0718AEA0200FFF7FCFD75
:108DD0008AEA00000B990A9BDDF824A0DDF830B088
:108DE0004640F6B283EA0A000596E6718BEA010670
:108DF00086EA0007FFF7E8FD8AEA00000A9B0B9A63
:108E000087EA00085FFA88F882EA030084F808809D
:108E1000FFF7DAFDDDF828A08AEA000087EA0009FA
:108E20005FFA89F9304684F80990FFF7CDFDDDF847
:108E30002CB00C998BEA0000099A87EA000B5FFAC4
:108E40008BFB81EA020084F80AB0FFF7BDFD0C9BA2
:108E50000D99DDF838A05840109A47408AEA010081
:108E6000DDF83CA0FFB282EA0A03E77283EA000A57
:108E70000293FFF7A9FD0D990F9A48408AEA000670
:108E80000E99F6B282EA01002673FFF79DFD0E9A55
:108E9000029B50408AEA0001C9B2617318460391EF
:108EA000FFF792FD0F9BDDF834E058408AEA00029C
:108EB000109BD2B2A27383EA0E000492FFF784FDE6
:108EC000109BDDF804C058408AEA000A494B5FFA5B
:108ED0008AFA84F80FA003EB0C0090F80BC195F808
:108EE00090001E448CEA0000207014981F4418441F
:108EF00090F80BC195F894008CEA0000207103EB08
:108F0000080090F80BC195F898008CEA00002072D8
:108F100095F89C0096F80B610399704020731944F2
:108F200091F80B0195F89110049A414003EB090068
:108F300090F80B6195F89D001A4470406073159885
:108F4000184490F80B6195F8990070406072119880
:108F5000184490F80B6195F8950061701299704073
:108F60006071194491F80B0195F89A1048400699E0
:108F7000194491F80B6195F89E10714003EB0B06B4
:108F800096F80BC195F892608CEA0606A67092F8E6
:108F90000B6195F89620A0727240139EA1731E4437
:108FA00096F80B11A271059E95F89F201E4496F825
:108FB0000B014A4095F8931053444140E17095F8F5
:108FC000971097F80B01DDF81CA04140E17193F870
:108FD0000B1195F89B30AAF1100A4B401AF1900F33
:108FE000E372E273CDF81CA07FF4F2AD17B0BDE8D8
:108FF000F08F00BFF225010838B5054C0546204624
:10900000FFF76EFC28462146BDE83840FFF7E6BC76
:109010006D1A0020034610210C200022FFF7C6BB6A
:10902000034610210C200022FFF7EEBB38B50546A1
:109030000E4CE36A4BB108F099F9E36A0360002330
:10904000E36208F093F9006838BD2846FFF748FA54
:1090500048B9228E92B2002AEAD0228E92B2013A08
:1090600092B2228638BD4FF0FF3038BD641B00201D
:10907000F7B5174602AC4FF0FF3244F8042D124A00
:10908000034695680E4605F109001946FEF7D8FE1D
:109090003146FEF7D5FE3946FEF7D2FE0C222946B0
:1090A00041F20100FFF750FA214641F20100FFF7BB
:1090B00029FA08F05BF9019B002103601846FEF7CE
:1090C0001BFF019803B0F0BD641B002073B54FF087
:1090D000FF3302AC44F8043D0E4B05469E6829461A
:1090E00006F10900FEF7ACFE0422314641F20B0006
:1090F000FFF72AFA214641F20B00FFF703FA08F0C6
:1091000035F9019B012103602846FEF7F5FE019821
:1091100002B070BD641B002037B54FF0FF320192E2
:10912000134A034694680D4604F109001946FEF7F8
:1091300087FE0821FEF784FE0821FEF781FE00234A
:10914000EA5CC2540133082BFAD11422214641F2C1
:109150000700FFF7F9F901A941F20700FFF7D2F97B
:1091600008F004F9019B0360184603B030BD00BF4E
:10917000641B00202DE9FF411D46314B8646D3F884
:1091800008800F4608F10900714616460A9CFEF752
:1091900057FE1421FEF754FE1421FEF751FE142150
:1091A000FEF74EFE1421FEF74BFED4F1010138BF4D
:1091B0000021FEF745FE0FB1396800E03946FEF7A1
:1091C0003FFE0EB1316800E03146FEF739FE0DB1C9
:1091D000296800E02946FEF733FE74B1216839B9E9
:1091E000636841F287329342DCBF41F288336360A7
:1091F000FEF726FE6168FEF723FE41462C2241F26F
:109200000800FFF7A1F941F208006946FFF77AF973
:10921000009B002B09DB0FB1019838600EB102985A
:1092200030604DB10398286006E008F09FF8009B7D
:1092300003604FF0FF3000E0184604B0BDE8F08155
:10924000641B00202DE9FF419846154B07469D6899
:1092500014460E4605F109003946FEF7F1FD214698
:10926000FEF7EEFD4146FEF7EBFDBDF83040294626
:109270000C222046FFF768F9204601A9FFF742F9C2
:10928000029B002B04DD30460A990B9AFFF74CF93C
:1092900008F06CF8029B0360184604B0BDE8F0814A
:1092A000641B00201FB500240094019441F20404C3
:1092B0000294FFF7C7FF04B010BD00002DE9F04F86
:1092C000DFF8E09089B01446012289F8002003916C
:1092D0009B46139E149D0290FFF7A8FEDDF808C080
:1092E00000285AD12E4B89F800009A6B812D02F18B
:1092F00001029A63D3F8089009F10A0307D0832D7D
:109300000AD104F1080A09F12208182704E009F13A
:109310001A0810270646129061461846FEF790FD7F
:10932000391FFEF78DFD2146FEF78AFD5946FEF7EF
:1093300087FD832D05D15146FEF782FD0821FEF7FA
:109340007FFD4346C8EB030109B2A14204DA039A48
:10935000515C03F8011BF5E7832D18460ED0129BD4
:10936000B6B200930196E8B249463A46A3B2FFF777
:10937000FCF8832D0BD141F20F000AE0191A09B253
:10938000B142ECDA129A515C03F8011BF6E741F2A4
:10939000030005A9FFF7B6F8204609B0BDE8F08F35
:1093A000641B00206C1A00201FB500240094019457
:1093B00081240294FFF782FF04B010BD1FB5069C04
:1093C0000094079C019483240294FFF777FF04B074
:1093D00010BD0000202A73B503460E46144624D85B
:1093E000144A1946956805F10900FEF729FD082180
:1093F000FEF726FD2146FEF723FD03461A1A12B298
:10940000A24203DAB25C03F8012BF7E704F10C0285
:109410002946D2B241F21100FFF796F841F211004D
:1094200001A9FFF76FF8019801E04FF0FF3002B09B
:1094300070BD00BF641B0020024B01225A8058609F
:10944000FEF772BE641B002010B5084CE16022617B
:109450006361029BE361039B2362049B6362059B40
:10946000A3620123A06184F8403010BD641B00207A
:1094700070B5214C0023A363E363238023866386B6
:10948000A386E386E362638063601C4B05461C4849
:10949000A36000F0ABFAE3699847A36A064601208F
:1094A000984706B3E36998470028FBD1002DA168CF
:1094B00014BF022300234B7201224FF48040FFF7B8
:1094C00043F84FF480400021FFF71CF8A16844F2F4
:1094D0000B000022FFF738F8BDE8704044F20B00A3
:1094E0000021FFF70FB8E36998470028FBD0E36934
:1094F00098470028FBD1D9E7641B0020CC1B002033
:109500003994000838B5094C0020A36A98472546CD
:10951000EB69064C98470028FAD0A3680BB10023EA
:10952000A360BDE8384000F075BA00BF641B00209E
:109530002DE9F04F994685B04FF0FF3301932E4B44
:109540001546D3F808A00024834688460AF109008E
:109550001C210F9E0E9F0294ADF80C40FEF770FC8C
:109560002946FEF76DFC5946FEF76AFC05F110012D
:10957000FEF766FC3146FEF763FC2146FEF769FC08
:10958000B9F1000F08D019F8043003550134062C46
:10959000F9D10630034607E04B4602AA9A5CC25452
:1095A0000133062BF9D1F4E71A1A12B2AA4204DAEF
:1095B00018F8022003F8012BF6E7194646B13FB12F
:1095C0005A1A12B2B24203DABA5C03F8012BF7E777
:1095D0001C367219D2B251460120FEF7B5FF01A91F
:1095E0000120FEF78FFF07F0C1FE019B03601846C4
:1095F00005B0BDE8F08F00BF641B0020F7B517462B
:1096000002AC4FF0FF3244F8042D0D4A0346956832
:109610000E4605F109001946FEF712FC3146FEF729
:109620000FFC3946FEF70CFC29460C220420FEF7FD
:109630008BFF04202146FEF765FF019803B0F0BDC3
:10964000641B00202DE9F04F144685B000220292E1
:10965000ADF80C206D4A8046D2F808A00F460AF1FA
:10966000090041469B460F9D139EFEF7E9FBB8F1AA
:10967000030F00F2BD80DFE808F0022C757514219D
:10968000FEF7DEFB2146FEF7DBFB0021FEF7E1FBE8
:10969000BBF1000F07D000221BF8021081540132E9
:1096A000062AF9D106E05B4602AA9A5CC25401334D
:1096B000062BF9D106300E99FEF7C2FB03461A1AA3
:1096C00012B2A24203D2BA5C03F8012BF7E71834B6
:1096D0008CE02021FEF7B4FB2146FEF7B1FB002110
:1096E000FEF7B7FBBBF1000F07D000221BF80210FA
:1096F00081540132062AF9D106E05B4602AA9A5C3F
:10970000C2540133062BF9D10E990630FEF798FBAF
:1097100004F10C01FEF794FB2946FEF791FB10992A
:10972000FEF78EFB03461A1A12B2A24203D2BA5CAB
:1097300003F8012BF7E7129804211A46D61A36B21D
:10974000AE4203D2865D02F8016BF7E70139284487
:1097500001D01346F1E704EB850909F124091FFA4A
:1097600089F945E02821FEF76BFB2146FEF768FBEF
:109770000021FEF76EFBBBF1000F07D000221BF8A3
:10978000021081540132062AF9D106E05B4602AA92
:109790009A5CC2540133062BF9D10E990630FEF7BC
:1097A0004FFB2946FEF74CFB1099FEF749FB119938
:1097B000FEF746FB04F10801FEF742FB3146FEF7D7
:1097C0003FFB03461A1A12B2A24203D2BA5C03F854
:1097D000012BF7E719465A1A12B2B24204D2129874
:1097E000825C03F8012BF6E72C3634441FFA84F927
:1097F00051465FFA89F20520FEF7A6FE052001A971
:10980000FEF780FE019805B0BDE8F08F641B0020D4
:1098100037B50C4B01469D6802AC05F10900FEF717
:109820000FFB4FF0FF3344F8043D29460422062085
:10983000FEF78AFE06202146FEF764FE019803B07B
:1098400030BD00BF641B002037B548F2080248F263
:10985000080102408A42034613490BD1002093427B
:1098600081F840001ED023F4004323F0080343F4A2
:10987000004302E0012281F840208D684FF0FF3262
:10988000194602AC05F1090044F8042DFEF7D8FA98
:10989000294604220820FEF757FE08202146FEF73D
:1098A00031FE019803B030BD641B002073B50C4B32
:1098B00001469D684FF0FF3602AC05F109000196A4
:1098C000FEF7BEFA44F8046D294604220A20FEF78A
:1098D0003BFE0A202146FEF715FE019802B070BD3E
:1098E000641B002013B50E4A4FF0FF3301939168BB
:1098F00098B154230370437083700022845C8B18EA
:109900000132032A5C72F9D10C20FEF71DFE0C20F7
:1099100001A9FEF7F7FD019800E0184602B010BD5E
:10992000641B0020F0B52E4887B0FFF773FB02469A
:10993000002852D12B4D0D2043212B46FEF736FF38
:1099400000284AD12E782649F71C7C192046FFF7BB
:1099500053FB2B782B445B78102B04D904F11000B7
:109960001F49FFF749FBE37F1BB1EB5D1F2B03D1C1
:1099700000E0EB5D013400E020232A781544AA784A
:10998000032A29D8DFE802F0020E1919002001236A
:109990000093019002900390049005901249324682
:1099A000034616E001208DE809000023029303938B
:1099B000049405930C4932460BE0012018211E2225
:1099C00002258DE8270008490593049403203246B8
:1099D0000023FFF737FE00E0002007B0F0BD00BF16
:1099E000A81B0020201B0020211B002008B50649D1
:1099F000064B00229A6018601961DA80DA609A805A
:109A0000034B1B6A984708BDCC1F0020B81B0020E1
:109A1000641B002008B5044B1A690AB100221A61C0
:109A2000024B5B6A984708BDB81B0020641B0020EE
:109A3000024B4FF480725A60704700BF00E100E0B3
:109A400008B5074B4FF48072C3F8842000F06EFE17
:109A5000044B022218699A6005301B68984708BDBC
:109A600000E100E0B81B002070B506460020144657
:109A70000D4600F04BFE012EA4B207D13046294618
:109A8000224600F0CBFD0020124907E0124B0120D6
:109A90001969224600F0C2FD00202946224600F046
:109AA000BDFD0E480221012201F035FD012000F02C
:109AB0002DFE0A4801F037FD0028FAD1084801F0D0
:109AC00032FD0028FAD10748802102F020F8002852
:109AD000F9D170BD5C020020B81B00205800024084
:109AE000440002400038004003460A46012019465F
:109AF000FFF7BABF70B50646002014460D4600F0C9
:109B000005FE012EA4B207D130462946224600F0B8
:109B100085FD0020104907E0104B012019692246FD
:109B200000F07CFD00202946224600F077FD012050
:109B300000F0ECFD0A4801F0F6FC0028FAD10948D3
:109B400001F0F1FC0028FAD10748802101F0DFFF85
:109B50000028F9D170BD00BF5C020020B81B0020B6
:109B600058000240440002400038004003460A46C4
:109B700000201946FFF7BEBF38B504460D4600F079
:109B80008BFE322000F0A2F9214604220020FFF7CC
:109B9000B1FF322000F09AF90020211D2A1FFFF7A3
:109BA000A9FF034B02229A6000F0C0FD002038BDDF
:109BB000B81B0020F8B501F0010383F00103012276
:109BC00002700546CA18C2F30720AA704E1D002273
:109BD000194C6870EA702A71B6B21E44A368B6B216
:109BE00013B9A368012BFCD1A368012B07D1284628
:109BF0003146FFF7C1FFA368022BFCD11AE0A3682E
:109C0000022BFCD10D48802101F081FF0028F9D101
:109C10000B4FFB6998470028FAD00323A360E56047
:109C2000A68000F039FEFB6998470028FBD0A368A6
:109C3000022BFCD10020F8BDB81B002000380040EA
:109C4000641B0020F8B5184E356937466B79022B36
:109C500008D0042B24D12C7A631E13F0010F08BF07
:109C60001C4614E0681D0321FEF7F8F8B0F5806F7C
:109C7000044608DB05F10A004FF480610724FFF772
:109C800033FFB4600DE0C30701D4441C00E024B1ED
:109C900005F10A00A1B2FFF727FF0823BB6000E02F
:109CA00000242046F8BD00BFB81B0020024B012055
:109CB00019690A22FFF7D8BEB81B002008B5FFF7C4
:109CC000C1FF18B9BDE80840FFF7BABE08BD0000E3
:109CD000F8B5344C4FF40030276901F027FC0646F4
:109CE0004FF4005001F022FCA3682546062B0BD14F
:109CF000002E56D0002854D04FF4083001F024FC38
:109D0000BDE8F840FFF7DABFA368072B19D1002898
:109D100047D04FF4083001F017FC0321781DFEF7FF
:109D20009DF8A0F5806189B2CB0758BFA0F2FF3142
:109D3000206958BF89B200F20A40FFF7D5FE082318
:109D40001CE0A368082B08D158B34FF4083001F089
:109D5000FBFBBDE8F840FFF773BEA368052B0FD1EE
:109D6000FEB11148802101F0D2FE0028F9D14FF454
:109D7000083001F0E9FB00F0D9FC0223AB60F8BD2C
:109D8000A368042B0DD166B1A188E0680523A1F575
:109D90008061A36000F5806089B2BDE8F840FFF7FC
:109DA000E5BEF8BDB81B00200038004008B5164BD2
:109DB000DB69984738BB154B9A6812B901229A6043
:109DC00008BD9A68022A07D106229A6000F064FD55
:109DD000BDE80840FFF76ABF9A68032A13D19A8842
:109DE000B2F5806F06D805219960D968BDE80840B2
:109DF000FFF73ABE04229A60D8684FF48061BDE84C
:109E00000840FFF7B3BE08BD641B0020B81B00204C
:109E1000BFF34F8F044A054BD16801F4E0610B4357
:109E2000D360BFF34F8FFEE700ED00E00400FA05BA
:109E30000D4B0E4A197839B9D98889B21187198919
:109E400089B291879B8806E0D98989B21187198ADE
:109E500089B291879B899BB29386054B63221A70C6
:109E6000FF225A70704700BFFC190020002C0140EF
:109E7000640200204FF4407001F078B90A4BF021E1
:109E80001A684FF47A73B2FBF3F2084B013A5A6046
:109E9000074A82F823100021996007211960D02316
:109EA00082F82330704700BFB802002010E000E0C5
:109EB00000ED00E082B00190019A034B1A601A682D
:109EC000002AFCD102B07047D823002013B50849FE
:109ED000084B01900C68084901985A68B4FBF1F1ED
:109EE00000FB01215A689142FCD802B010BD00BFAE
:109EF000B8020020001000E040420F0030B54FF4DF
:109F0000003085B001F078FB4FF400330293082352
:109F1000002501240DEB03008DF80D308DF80C5059
:109F20008DF80E4001F01AFB032301A88DF80430D0
:109F30008DF805308DF806508DF8074001F020F9B6
:109F400029238DF8043004230DEB03008DF8053030
:109F50008DF806508DF8074001F012F9022001F04B
:109F6000A5FC50B1022001F0ABFC01F06FFD2420F4
:109F70004FF6FF7101F00AFA27E0242001F014FAED
:109F80004AF2A553984201D101F07CFC012001F076
:109F9000AFFC412001F006FD0028FAD04FF480709C
:109FA00001F0B6FC012001F0BBFC01F04FFD01F017
:109FB00045FD0320012101F011FD01F03FFD47F6B1
:109FC000FF7001F02BFD01F039FD05B030BD10B57B
:109FD000044645F2555001F02DFC062001F030FCFE
:109FE00042F21070844228BF044628206043C0F328
:109FF0000F2001F02BFC01F02FFCBDE8104001F018
:10A0000033BC0000082814D8012908D10B4B0C4A96
:10A0100003EB80035B6832F810201A610BE051B942
:10A02000064B074A03EB80035B6832F810205A6145
:10A0300001E0FF2000E0002040B2704764020020F1
:10A040000028010873B50F4E8500731904460121DD
:10A05000186901F077FC36F8143001A9ADF8043026
:10A0600010238DF8073003238DF80630064B1D446E
:10A07000686801F041FB20460021FFF7C3FF02B0F2
:10A0800070BD00BF002801086402002070B50121E6
:10A0900088B04FF4006001F055FC314B01A81C68FA
:10A0A000304B0025B4FBF3F4A4B201F055FF01A836
:10A0B00001F052FFADF804402B4C42F20F7301A99E
:10A0C0002046ADF80830ADF80A50ADF8065001F062
:10A0D000FBFD04A801F049FF60230126ADF8103014
:10A0E0002046022304A9ADF81830ADF81260ADF88F
:10A0F0001650ADF81C5001F031FE2046294601F003
:10A100006DFF204604A901F06DFE2046294601F0AE
:10A110006DFF204604A901F0A9FE2046294601F062
:10A120006FFF204604A9ADF81050ADF81260ADF8ED
:10A130001650ADF8185001F0DBFE2046294601F01C
:10A1400067FF2046314601F03DFF2046314601F0D1
:10A1500016FF2046314601F01EFF08B070BD00BF5B
:10A16000B802002040420F00002C014030B51049D9
:10A17000104B8C8D93F82430A4B204FB0334C0F34D
:10A18000074254430C4A240CD4808C8DC0F307251D
:10A19000A4B204FB03346C43240C1481898DC0B237
:10A1A00089B201FB033343431B0C938030BD00BFD6
:10A1B000002C014064020020FC19002030B5104939
:10A1C000104B8C8D93F82430A4B204FB0334C0F3FD
:10A1D000074254430C4A240CD4818C8DC0F30725CC
:10A1E000A4B204FB03346C43240C1482898DC0B2E6
:10A1F00089B201FB033343431B0C938130BD00BF85
:10A20000002C014064020020FC190020024B0022B7
:10A210001A70FFF70DBE00BFFC19002073B50F4E7A
:10A220008500731904460121186B06EB440601F002
:10A2300089FBB6F84030ADF804300CB9102300E0CB
:10A2400018238DF8073003238DF80630044B01A93D
:10A250001D44A86A01F050FA02B070BD0028010840
:10A260006402002010B1E72806D07047034B4FF47A
:10A2700000529B6A1A617047FFF7DABD6402002042
:10A2800010B1E72806D07047074B4FF400529B6A85
:10A290005A617047054A0023138793879386024AC1
:10A2A000137001235370704764020020002C01409A
:10A2B000024B0122E7201A70FFF7E2BFFC190020D1
:10A2C00010B1E72807D070471D4B9B6ADA6882F40B
:10A2D0000052DA6070471B4A1B4B1178A1B9188FE6
:10A2E00080B208B9D18889B219879B8F16499BB271
:10A2F0000BB1002301E013899BB28B87124B998E1F
:10A3000089B2B1B9928817E0198F89B209B10021D9
:10A3100001E0D18989B219879B8F0B499BB20BB1A0
:10A32000002301E0138A9BB28B87074B998E89B279
:10A3300009B1002201E0928992B29A86704700BF6B
:10A3400064020020FC190020002C014010B51D4AB9
:10A3500013780BB9012102E0632B01D1FF21517069
:10A360005178E7280B44DBB2137029D1164A6320D9
:10A37000147816497CB9D488A4B25C43B4FBF0F4D9
:10A38000A4B20C871489A4B25C43B4FBF0F4A4B269
:10A390008C8792880EE0D489A4B25C43B4FBF0F4BD
:10A3A000A4B20C87148AA4B25C43B4FBF0F4A4B248
:10A3B0008C87928992B25343B3FBF0F080B28886C7
:10A3C00010BD00BF64020020FC190020002C0140D9
:10A3D00073B5104C0E4604EB400494F84C1005463F
:10A3E00094F8480001F010FAB4F85040204601F00B
:10A3F000EFF800238DF80430074B68461D4495F8AC
:10A40000383000948DF805308DF8066001F0A6F81C
:10A4100002B070BD0028010864020020F7B5234E89
:10A420008700F3190546586D0C4640F001000121E4
:10A4300001F088FA1E4B06EB45065A1992F83A20AD
:10A4400002A98DF80320B6F85C201F4421F8082DDE
:10A45000F86B694601F050F9012C24D1102100223B
:10A46000144801F0A6FD1B238DF8043000270523B6
:10A4700001A88DF805308DF806708DF8074000F0C2
:10A480007FFEB6F8603001A88DF8043006238DF801
:10A4900005308DF806708DF8074000F071FE2846F3
:10A4A0002146FFF795FF03B0F0BD00BF002801086B
:10A4B00064020020002C01401A4B10B5DA68002419
:10A4C00042F08072DA60184B01215C601A684FF02C
:10A4D000C05042F001021A6001F040FA012001F080
:10A4E000CBF9FFF7C7FC0120014601F02BFAE0B2DF
:10A4F0000134FFF7A7FD082CF9D1FFF7C7FD0020B5
:10A50000FFF78CFE0120FFF789FE0220FFF786FE91
:10A510000320FFF783FEBDE8104000200121FFF774
:10A520007DBF00BFF0ED00E0001000E0054A064BE3
:10A5300002EB800203EB4003B3F85C10D06B01F038
:10A5400029B900BF6402002000280108024B03EB78
:10A550004000408A80B27047FC190020024B002264
:10A5600003EB400042827047FC19002010B5082020
:10A5700086B0012101F0E6F94FF48040012101F09D
:10A58000EDF9244C4FF40053ADF8003003238DF85F
:10A5900002302046182369468DF8033001F0ACF8EC
:10A5A0004FF4004320466946ADF8003001F0A4F8AE
:10A5B0004FF48043ADF800302046042369468DF8FF
:10A5C000033001F099F84FF48272ADF806200122B1
:10A5D0000023ADF80C20A4F554444FF40072ADF8FC
:10A5E0000430ADF80830ADF80A30ADF80E20ADF803
:10A5F000123008220723204601A9ADF81020ADF83B
:10A60000143001F04BFA2288034B92B21A8006B044
:10A6100010BD00BF000C0140E623002070B50446C9
:10A6200001208CB00E460146154601F07FF9124B11
:10A6300080220193069200234FF44052012C02968F
:10A6400005930793089309930A920B9306D10B483D
:10A650000393049500F0BEFE084807E04CB91023B0
:10A6600007480393049500F0B5FE054801A900F0E2
:10A6700029FF0CB070BD00BF0C3800404400024000
:10A680005800024073B50F230124002501A88DF85E
:10A6900004308DF805508DF80650174E8DF80740A0
:10A6A00000F06EFDFFF762FF20462A461349FFF7D0
:10A6B000B5FF28462A461249124DFFF7AFFF304634
:10A6C0002246022100F027FF28462146224601F0BB
:10A6D00010FA22462846022101F00BFA28462146AC
:10A6E00001F0FBF92146084800F00AFF30462146F8
:10A6F00000F006FF02B070BD58000240CC1F0020E1
:10A70000CC1B0020003800404400024010B5044635
:10A710002146044800F0F4FE21460348BDE81040FD
:10A7200000F0EEBE440002405800024002484FF4E0
:10A73000805101F035B800BF000C014008B54FF45E
:10A740000061024801F026F808BD00BF000C01407E
:10A7500030B5092085B0012101F0F4F84FF4006410
:10A760004823694614488DF80330ADF8004000F0E6
:10A77000C3FF0B21012001F047F8204600F028FF1D
:10A78000002502940C23012402A88DF80D308DF8C9
:10A790000C508DF80E4000F0E1FE282301A88DF842
:10A7A00004308DF805408DF806508DF8074000F014
:10A7B000E7FC05B030BD00BF000C01401FB52823E9
:10A7C000002401A88DF804308DF8074000F0D8FC73
:10A7D0004FF4006302A802938DF80E4000F0BEFE15
:10A7E00004B010BD20B105484FF4807100F0D8BF0F
:10A7F00002484FF4807100F0D5BF00BF000C01404B
:10A8000013B50820012101F09DF80F4C4FF480533F
:10A81000ADF804300323204601A98DF8063010233B
:10A820008DF8073000F068FFFFF780FF4FF480736A
:10A83000204601A9ADF8043000F05EFF0020FFF7CC
:10A84000D1FF02B010BD00BF000C014010B50B4C91
:10A85000238823F040031B041B0C2380FFF766FFB3
:10A86000074B08481B884FF400719BB243F040032C
:10A870002380BDE8104000F095BF00BF00380040C5
:10A88000E4230020000C014002484FF4007100F066
:10A8900087BF00BF000C014010B50B4C238823F08C
:10A8A00040031B041B0C2380FFF7EEFF074B0848F7
:10A8B0001B884FF480519BB243F040032380BDE8D6
:10A8C000104000F06FBF00BF00380040E6230020BA
:10A8D000000C014070B5082086B0012101F032F86B
:10A8E0002E4C4FF48040012101F038F84FF4005312
:10A8F000ADF8003003261823204669468DF8033052
:10A900008DF8026000F0F8FE4FF4004320466946DF
:10A91000ADF8003000F0F0FE4FF48043ADF80030A9
:10A920002046042369468DF803304FF4007500F08B
:10A93000E3FE1023204669468DF80330A4F5544405
:10A94000ADF800508DF8026000F0D6FEFFF79CFFD6
:10A9500000234FF48272ADF80430ADF80620ADF854
:10A960000830ADF80A30ADF80C300822ADF81230DE
:10A970002046072301A9ADF81020ADF81430ADF83A
:10A980000E5001F08BF82288054B92B2204601212F
:10A990001A8001F0A2F806B070BD00BF000C0140A3
:10A9A000E423002007B50820012100F0CBFF4FF47D
:10A9B0008063ADF8043003238DF806300448142377
:10A9C00001A98DF8073000F097FE03B05DF804FB95
:10A9D000000C014008B5002000F07AFFBDE80840F7
:10A9E0004FF40000012100F0B9BF0000014B032229
:10A9F0001A607047301A0020044B9A7A044B0AB14F
:10AA0000052200E001221A60704700BFF8230020F1
:10AA1000301A002007B514238DF8043002238DF876
:10AA2000053000238DF8063001A801238DF807308A
:10AA300000F0A6FB03B05DF804FB000020B1054860
:10AA40004FF4806100F0AEBE02484FF4806100F028
:10AA5000A7BE00BF000C01400A4B9B7D83B10A4B8F
:10AA60001A880A4BA3F84420094A1288A3F8462002
:10AA7000084A1288A3F84820074A1288A3F84A20F7
:10AA8000704700BFFC190020004C00086402002041
:10AA9000024C0008044C0008064C000810B51B4B83
:10AAA0009B7D93B300F0AEFD342000F0BFFD18484D
:10AAB00000F0E8FD042827D1164C1548B4F84410DE
:10AAC00000F0FEFD04281ED11348B4F8461000F033
:10AAD000F7FD042816D100F1006000F59840B4F8A5
